:0A07BA0025642C25642C25640A0038
:10078D00044B0000C3500467000000000463000028
:06079D00000002370028F5
:1007A4008F1F8E1E8D1D8C1C781C74FF12055FEC30
:0607B4004D4E4F70F322D0
:10000E00438901758CFC758A18D2A9D2AFD28C2285
:10068A0012000E7F80120775C2A0C2A17F887E1356
:10069A007D007C001207A43009FDB2A1E5662401A1
:1006AA00F566E43565F565E43564F564E43563F5C6
:1006BA0063786712057DAB4EAA4DA94CA84BD3129D
:1006CA00054C500BE4F56AF569F568F567C209AEA1
:0B06DA0037AF38E4FCFD1207A480BC21
:03000B000203826B
:10038200C0E0C0F0C083C082C0D075D000C000C041
:1003920001C002C003C004C005C006C007758CFCC2
:1003A200758A18E52270030205040562E56270028F
:1003B2000561D39414E5619400500302050475614C
:1003C20000756200752200E539643060030205049D
:1003D200E53AF46003020504E53BFB7A00700C8504
:1003E2003C4EF54DF54CF54B020504EB64014A60B9
:1003F200030204B7E53C7003C38001D3920AE53DD2
:10040200FEE53EFDEEF537EDF538D3E5389450E5DF
:1004120037940040067E007F508004AE37AF388E9E
:10042200378F38C3E5389402E537940050067E00D2
:100432007F028004AE37AF388E378F38E5407E00BA
:100442007810C333CE33CED8F9FDAC06E53F7E003B
:100452007818C333CE33CED8F9FFEE4CFCEF4DFD06
:10046200E5414CFEEDFFE542FDEF4DFFEE3395E039
:100472008F4E8E4DF54CF54BE4FFFEFDFCAB4EAAC4
:100482004DA94CA84BC312054C5007E4FFFEFDFCDE
:100492008008AF4EAE4DAD4CAC4B8F4E8E4D8D4C59
:1004A2008C4BA20A92A07F027E007D007C00120784
:1004B200A4D209804DAF3B7E00EF64027004C209F2
:1004C2008040EF64034E703A750BFF750C07750D93
:1004D200BA85661185651085640F85630E854E1594
:1004E200854D14854C13854B12A20A9200FB7A00AB
:1004F20079231200827B007A0079237D147C00121A
:10050200071FD007D006D005D004D003D002D001F7
:0D051200D000D0D0D082D083D0F0D0E03225
:030023000206E5ED
:1006E500C0E0C0D075D000C000C007309823C298C4
:1006F500756100756200C3E5229412748094805080
:1007050010AF22052274392FF8A69975610075621C
:0A07150000D007D000D0D0D0E032B1
:100775008F1C759850438920758780758DF3758B0F
:08078500F3D2ACD2AFD28E22F8
:080003008F993099FDC299228A
:0A071F008B088A09890A8C0B8D0CE7
:10072900E4FDFCC3ED950CEC950B5018AB08AA0938
:10073900A90A8D828C8312051FFF1200030DBD00CB
:04074900010C80DF40
:01074D002289
:030000000205FEF8
:0C05FE00787FE4F6D8FD75816A0206459E
:10051F00BB010CE58229F582E5833AF583E0225091
:10052F0006E92582F8E622BBFE06E92582F8E222DB
:0D053F00E58229F582E5833AF583E49322F5
:10054C00EB9FF5F0EA9E42F0E99D42F0E89C45F005
:01055C00227C
:10055D007401FF3395E0FEFDFC080808E6CF2FF689
:10056D0018E6CE3EF618E6CD3DF618E6CC3CF62262
:10057D007401FF3395E0FEFDFC080808E62FFFF639
:10058D0018E63EFEF618E63DFDF618E63CFCF622B2
:10002600E517240BF8E60517227808300702780B47
:10003600E475F0011205C802059D2000EB7F2ED263
:10004600008018EF540F2490D43440D4FF30040BB2
:10005600EF24BFB41A0050032461FFE518600215AF
:1000660018051BE51B7002051A30070D7808E475A4
:10007600F0011205C8EF0205B602074E7403D20757
:100086008003E4C207F5178B088A09890AE4F51884
:10009600F51AF51BE51860077F2012006180F575DB
:1000A60019FFC201C200C202C203C205C206C208CB
:1000B60012002FFF700D3007057F00120072AF1B74
:1000C600AE1A22B4255FC2D5C20412002FFF24D077
:1000D600B40A00501A75F00A781830D50508B6FF2C
:1000E6000106C6A426F620D5047002D20380D924C0
:1000F600CFB41A00EF5004C2E5D204020272D20154
:1001060080C6D20080C0D20280BCD2D580BAD205C9
:1001160080B47F201200612002077401B5180040E8
:10012600F1120026FF12006102009AD208D2068060
:1001360095120026FB120026FA120026F94A4B7089
:100146000679437A037BFF20022EE518602A7E009B
:100156008E8275830012051F60060EEE651970F01B
:10016600C2D5EBC0E0EAC0E0E9C0E0EE1202B9D0C9
:10017600E0F9D0E0FAD0E0FB12059DFF60AAEBC0E3
:10018600E0EAC0E0E9C0E0120061D0E02401F9D065
:10019600E03400FAD0E0FBE5190460DCD519D9801B
:1001A600877BFF7A0279B5D202809C79108002792A
:1001B60008C206C2088008D2D5790A8004790AC224
:1001C600D5E519047002F519E4FAFDFEFF120026C2
:1001D600FC7B08200113120026FD7B1030000A125A
:1001E6000026FE120026FF7B20EC3382D592D550E6
:1001F60013C3E43000069FFFE49EFEE42001039D46
:10020600FDE49CFCE4CBF8C201EC700CCFCECDCC67
:10021600E824F8F870F38017C3EF33FFEE33FEEDF2
:1002260033FDEC33FCEB33FB994002FB0FD8E9EBD3
:10023600300105F8D0E0C448B201C0E00AEC4D4EEA
:100246004F78207B0070C2EAB5190040BCC0E012AE
:1002560002BBD0F0D0E0200104C4C0E0C4B201C0AB
:10026600F012004AD0F0D5F0EB02009A1205D80140
:10027600375301B15801084C01044201B54F01BD85
:0F0286004401BD49011D4301C35501A74601A70E
:100295004501A747036350010C2D01102E01332B97
:1002A500011423013120034C2A00CC480000012B06
:1002B5003F3F3F00790AA2D5200314300509B91044
:1002C500020404B9080104A2D52006025001042045
:1002D50002689202B518005034C0E07F203003193F
:1002E5007F30A20272067205500F120312C202C2BB
:1002F50006C205C2087F30800F300503E9C0E01251
:100305000061300503D0E0F9D0E0B518CC30051711
:100315007F30B9100C1200617F583004077F788058
:1003250003B908031200613002057F2D0200617FC9
:10033500202008F87F2B2006F322920280CF286E1A
:10034500756C6C2900D2011200263001F8C20178C3
:100355001830D50108F60200CC2D5043495812003B
:10036500262403B405004001E490035E9312005275
:0D037500743A120052D2037518040201B14F
:10060A0002068AE493A3F8E493A34003F68001F276
:10061A0008DFF48029E493A3F85407240CC8C333F1
:10062A00C4540F4420C8834004F456800146F6DFC0
:10063A00E4800B010204081020408090078DE47EBC
:10064A00019360BCA3FF543F30E509541FFEE493B5
:10065A00A360010ECF54C025E060A840B8E493A37C
:10066A00FAE493A3F8E493A3C8C582C8CAC583CAA7
:10067A00F0A3C8C582C8CAC583CADFE9DEE780BE5F
:0107A3000055
:10059D00BB010689828A83E0225002E722BBFE025C
:0905AD00E32289828A83E493228F
:1005B600BB010689828A83F0225002F722BBFE0124
:0205C600F3221E
:1005C800FAE6FB0808E6F925F0F618E6CA3AF62234
:1005D800D083D082F8E4937012740193700DA3A3B2
:1005E80093F8740193F5828883E4737402936860C6
:0605F800EFA3A3A380DFC6
:10074E00EFB40A07740D120759740A309811A8995C
:10075E00B8130CC2983098FDA899C298B811F6300B
:07076E0099FDC299F59922E3
:00000001FF
