:0A079F0025642C25642C25640A0053
:10077200044B0000C3500467000000000463000043
:0607820000000237002810
:100789008F1F8E1E8D1D8C1C781C74FF120544EC66
:060799004D4E4F70F322EB
:10000E00438901758CFC758A18D2A9D2AFD28C2285
:10066F0012000E7F8012075AC2A0C2A17F887E138C
:10067F007D007C001207893009FDAE37AF38E4FCEE
:10068F00FD120789B2A1E5662401F566E43565F52B
:10069F0065E43564F564E43563F5637867120562E4
:1006AF00AB4EAA4DA94CA84BD312053150C9E4F556
:0B06BF006AF569F568F567C20980BCA8
:03000B000203826B
:10038200C0E0C0F0C083C082C0D075D000C000C041
:1003920001C002C003C004C005C006C007758CFCC2
:1003A200758A18E52270030204E90562E5627002AB
:1003B2000561D39414E561940050030204E9756168
:1003C20000756200752200E539643060030204E9B9
:1003D200E53AF460030204E9E53BFB7A00700C8520
:1003E2003C4EF54DF54CF54B0204E9EB64014A60D5
:1003F2000302049CE53C7003C38001D3920AE53DED
:10040200FEE53EFDEEF537EDF538D3E5389450E5DF
:1004120037940040067E007F508004AE37AF388E9E
:10042200378F38C3E5389402E537940050067E00D2
:100432007F028004AE37AF388E378F38E5407E00BA
:100442007810C333CE33CED8F9FDAC06E53F4CFC71
:10045200E5414CFEEDFFE542FDEF4DFFEE3395E049
:100462008F4E8E4DF54CF54BE4FFFEFDFCAB4EAAD4
:100472004DA94CA84BC31205315007E4FFFEFDFC09
:100482008008AF4EAE4DAD4CAC4B8F4E8E4D8D4C69
:100492008C4BA20A92A0D209804DAF3B7E00EF6442
:1004A200027004C2098040EF64034E703A750BFF7C
:1004B200750C07750D9F85661185651085640F851E
:1004C200630E854E15854D14854C13854B12A20A79
:1004D2009200FB7A0079231200827B007A00792352
:1004E2007D147C00120704D007D006D005D004D0BA
:1004F20003D002D001D000D0D0D082D083D0F0D0AF
:02050200E032E5
:030023000206CA08
:1006CA00C0E0C0D075D000C000C007309823C298DF
:1006DA00756100756200C3E522941274809480509B
:1006EA0010AF22052274392FF8A699756100756238
:0A06FA0000D007D000D0D0D0E032CD
:10075A008F1C759850438920758780758DF3758B2A
:08076A00F3D2ACD2AFD28E2213
:080003008F993099FDC299228A
:0A0704008B088A09890A8C0B8D0C02
:10070E00E4FDFCC3ED950CEC950B5018AB08AA0953
:10071E00A90A8D828C83120504FF1200030DBD0001
:04072E00010C80DF5B
:0107320022A4
:030000000205E313
:0C05E300787FE4F6D8FD75816A02062AD4
:10050400BB010CE58229F582E5833AF583E02250AC
:1005140006E92582F8E622BBFE06E92582F8E222F6
:0D052400E58229F582E5833AF583E4932210
:10053100EB9FF5F0EA9E42F0E99D42F0E89C45F020
:010541002297
:100542007401FF3395E0FEFDFC080808E6CF2FF6A4
:1005520018E6CE3EF618E6CD3DF618E6CC3CF6227D
:100562007401FF3395E0FEFDFC080808E62FFFF654
:1005720018E63EFEF618E63DFDF618E63CFCF622CD
:10002600E517240BF8E60517227808300702780B47
:10003600E475F0011205AD0205822000EB7F2ED299
:10004600008018EF540F2490D43440D4FF30040BB2
:10005600EF24BFB41A0050032461FFE518600215AF
:1000660018051BE51B7002051A30070D7808E475A4
:10007600F0011205ADEF02059B0207337403D207A8
:100086008003E4C207F5178B088A09890AE4F51884
:10009600F51AF51BE51860077F2012006180F575DB
:1000A60019FFC201C200C202C203C205C206C208CB
:1000B60012002FFF700D3007057F00120072AF1B74
:1000C600AE1A22B4255FC2D5C20412002FFF24D077
:1000D600B40A00501A75F00A781830D50508B6FF2C
:1000E6000106C6A426F620D5047002D20380D924C0
:1000F600CFB41A00EF5004C2E5D204020272D20154
:1001060080C6D20080C0D20280BCD2D580BAD205C9
:1001160080B47F201200612002077401B5180040E8
:10012600F1120026FF12006102009AD208D2068060
:1001360095120026FB120026FA120026F94A4B7089
:100146000679437A037BFF20022EE518602A7E009B
:100156008E8275830012050460060EEE651970F036
:10016600C2D5EBC0E0EAC0E0E9C0E0EE1202B9D0C9
:10017600E0F9D0E0FAD0E0FB120582FF60AAEBC0FE
:10018600E0EAC0E0E9C0E0120061D0E02401F9D065
:10019600E03400FAD0E0FBE5190460DCD519D9801B
:1001A600877BFF7A0279B5D202809C79108002792A
:1001B60008C206C2088008D2D5790A8004790AC224
:1001C600D5E519047002F519E4FAFDFEFF120026C2
:1001D600FC7B08200113120026FD7B1030000A125A
:1001E6000026FE120026FF7B20EC3382D592D550E6
:1001F60013C3E43000069FFFE49EFEE42001039D46
:10020600FDE49CFCE4CBF8C201EC700CCFCECDCC67
:10021600E824F8F870F38017C3EF33FFEE33FEEDF2
:1002260033FDEC33FCEB33FB994002FB0FD8E9EBD3
:10023600300105F8D0E0C448B201C0E00AEC4D4EEA
:100246004F78207B0070C2EAB5190040BCC0E012AE
:1002560002BBD0F0D0E0200104C4C0E0C4B201C0AB
:10026600F012004AD0F0D5F0EB02009A1205BD015B
:10027600375301B15801084C01044201B54F01BD85
:0F0286004401BD49011D4301C35501A74601A70E
:100295004501A747036350010C2D01102E01332B97
:1002A500011423013120034C2A00CC480000012B06
:1002B5003F3F3F00790AA2D5200314300509B91044
:1002C500020404B9080104A2D52006025001042045
:1002D50002689202B518005034C0E07F203003193F
:1002E5007F30A20272067205500F120312C202C2BB
:1002F50006C205C2087F30800F300503E9C0E01251
:100305000061300503D0E0F9D0E0B518CC30051711
:100315007F30B9100C1200617F583004077F788058
:1003250003B908031200613002057F2D0200617FC9
:10033500202008F87F2B2006F322920280CF286E1A
:10034500756C6C2900D2011200263001F8C20178C3
:100355001830D50108F60200CC2D5043495812003B
:10036500262403B405004001E490035E9312005275
:0D037500743A120052D2037518040201B14F
:1005EF0002066FE493A3F8E493A34003F68001F2AD
:1005FF0008DFF48029E493A3F85407240CC8C3330D
:10060F00C4540F4420C8834004F456800146F6DFDB
:10061F00E4800B0102040810204080900772E47EF2
:10062F00019360BCA3FF543F30E509541FFEE493D0
:10063F00A360010ECF54C025E060A840B8E493A397
:10064F00FAE493A3F8E493A3C8C582C8CAC583CAC2
:10065F00F0A3C8C582C8CAC583CADFE9DEE780BE7A
:010788000070
:10058200BB010689828A83E0225002E722BBFE0277
:09059200E32289828A83E49322AA
:10059B00BB010689828A83F0225002F722BBFE013F
:0205AB00F32239
:1005AD00FAE6FB0808E6F925F0F618E6CA3AF6224F
:1005BD00D083D082F8E4937012740193700DA3A3CD
:1005CD0093F8740193F5828883E4737402936860E1
:0605DD00EFA3A3A380DFE1
:10073300EFB40A07740D12073E740A309811A89992
:10074300B8130CC2983098FDA899C298B811F63026
:0707530099FDC299F59922FE
:00000001FF
