:04001E0025640A004B
:0C0695000241C350025E0000025B000046
:10065100E4FDEDC39FE49E5012E4FCECC394787476
:0B06610080948050030C80F30D80E7B4
:01066C00226B
:0B06A200EF1FAC0670011E4C70F6222A
:10000E00438901758CFC758A18D2A9D2AFD28C2285
:10068500438910758DFC758B18D2ABD2AFD28E22F3
:10057C0012000E7F8012066DC2A0C2A17F887E136E
:10058C001206A2E55A60FCB2A1055CE55C7002059E
:10059C005B055FE55F7002055EC39542E55E9541C4
:1005AC004007E4F55EF55FF55A7F017E001206A266
:0205BC0080D1EC
:03000B000203826B
:10038200C0E0C0F0C083C082C0D075D000C000C041
:0D03920001C002C003C004C005C006C007C2
:10039F00758CFC758A18E52470030204470559E52E
:1003AF005970020558D3940AE5589400500302047B
:1003BF0047755800755900752400754301E52D6484
:1003CF00307075E52EF47070AF2F7E00EF7007F56B
:1003DF00418530428062EF64014E7025AF30FEEFF1
:1003EF007004F55D8009EF64014E7003755D01E5E2
:1003FF005D24FF92A07F027E001206A2755A018033
:10040F0037AF2F7E00EF64027004F55A802AEF6435
:10041F00034E7024750BFF750C00750D1E855B0E5A
:10042F00855C0FFB7A0079251200827B007A0079B8
:08043F00257D087C001205FB7D
:10044700D007D006D005D004D003D002D001D00009
:0B045700D0D0D082D083D0F0D0E032B3
:030023000205BE15
:0B05BE00C0E0C0D075D000C000C00736
:1005C900309826C298755800755900C3E5249414CB
:1005D90074809480501385991CAF240524742D2FA1
:0905E900F8A69975580075590037
:0905F200D007D000D0D0D0E032D7
:10066D008F1D759850438920758780758DF3758B17
:08067D00F3D2ACD2AFD28E2201
:080003008F993099FDC299228A
:0A05FB008B088A09890A8C0B8D0C0D
:10060500E4FDFCC3ED950CEC950B5018AB08AA095D
:10061500A90A8D828C83120462FF1200030DBD00AE
:04062500010C80DF65
:0106290022AE
:030000000204F007
:0C04F000787FE4F6D8FD75815F020537C7
:10046200BB010CE58229F582E5833AF583E022504F
:1004720006E92582F8E622BBFE06E92582F8E22299
:0D048200E58229F582E5833AF583E49322B3
:10002600E517240BF8E60517227808300702780B47
:10003600E475F0011204BA02048F2000EB7F2ED281
:10004600008018EF540F2490D43440D4FF30040BB2
:10005600EF24BFB41A0050032461FFE518600215AF
:1000660018051BE51B7002051A30070D7808E475A4
:10007600F0011204BAEF0204A802062A7403D2079A
:100086008003E4C207F5178B088A09890AE4F51884
:10009600F51AF51BE51860077F2012006180F575DB
:1000A60019FFC201C200C202C203C205C206C208CB
:1000B60012002FFF700D3007057F00120072AF1B74
:1000C600AE1A22B4255FC2D5C20412002FFF24D077
:1000D600B40A00501A75F00A781830D50508B6FF2C
:1000E6000106C6A426F620D5047002D20380D924C0
:1000F600CFB41A00EF5004C2E5D204020272D20154
:1001060080C6D20080C0D20280BCD2D580BAD205C9
:1001160080B47F201200612002077401B5180040E8
:10012600F1120026FF12006102009AD208D2068060
:1001360095120026FB120026FA120026F94A4B7089
:100146000679437A037BFF20022EE518602A7E009B
:100156008E8275830012046260060EEE651970F0D9
:10016600C2D5EBC0E0EAC0E0E9C0E0EE1202B9D0C9
:10017600E0F9D0E0FAD0E0FB12048FFF60AAEBC0F2
:10018600E0EAC0E0E9C0E0120061D0E02401F9D065
:10019600E03400FAD0E0FBE5190460DCD519D9801B
:1001A600877BFF7A0279B5D202809C79108002792A
:1001B60008C206C2088008D2D5790A8004790AC224
:1001C600D5E519047002F519E4FAFDFEFF120026C2
:1001D600FC7B08200113120026FD7B1030000A125A
:1001E6000026FE120026FF7B20EC3382D592D550E6
:1001F60013C3E43000069FFFE49EFEE42001039D46
:10020600FDE49CFCE4CBF8C201EC700CCFCECDCC67
:10021600E824F8F870F38017C3EF33FFEE33FEEDF2
:1002260033FDEC33FCEB33FB994002FB0FD8E9EBD3
:10023600300105F8D0E0C448B201C0E00AEC4D4EEA
:100246004F78207B0070C2EAB5190040BCC0E012AE
:1002560002BBD0F0D0E0200104C4C0E0C4B201C0AB
:10026600F012004AD0F0D5F0EB02009A1204CA014F
:10027600375301B15801084C01044201B54F01BD85
:0F0286004401BD49011D4301C35501A74601A70E
:100295004501A747036350010C2D01102E01332B97
:1002A500011423013120034C2A00CC480000012B06
:1002B5003F3F3F00790AA2D5200314300509B91044
:1002C500020404B9080104A2D52006025001042045
:1002D50002689202B518005034C0E07F203003193F
:1002E5007F30A20272067205500F120312C202C2BB
:1002F50006C205C2087F30800F300503E9C0E01251
:100305000061300503D0E0F9D0E0B518CC30051711
:100315007F30B9100C1200617F583004077F788058
:1003250003B908031200613002057F2D0200617FC9
:10033500202008F87F2B2006F322920280CF286E1A
:10034500756C6C2900D2011200263001F8C20178C3
:100355001830D50108F60200CC2D5043495812003B
:10036500262403B405004001E490035E9312005275
:0D037500743A120052D2037518040201B14F
:1004FC0002057CE493A3F8E493A34003F68001F295
:10050C0008DFF48029E493A3F85407240CC8C33300
:10051C00C4540F4420C8834004F456800146F6DFCF
:10052C00E4800B0102040810204080900695E47EC4
:10053C00019360BCA3FF543F30E509541FFEE493C4
:10054C00A360010ECF54C025E060A840B8E493A38B
:10055C00FAE493A3F8E493A3C8C582C8CAC583CAB6
:10056C00F0A3C8C582C8CAC583CADFE9DEE780BE6E
:0106A1000058
:10048F00BB010689828A83E0225002E722BBFE026B
:09049F00E32289828A83E493229E
:1004A800BB010689828A83F0225002F722BBFE0133
:0204B800F3222D
:1004BA00FAE6FB0808E6F925F0F618E6CA3AF62243
:1004CA00D083D082F8E4937012740193700DA3A3C1
:1004DA0093F8740193F5828883E4737402936860D5
:0604EA00EFA3A3A380DFD5
:10062A00EFB40A07740D120635740A309811A899A6
:10063A00B8130CC2983098FDA899C298B811F63030
:07064A0099FDC299F5992208
:00000001FF
